:10000000830100308A002828F60003088301D90004
:100010000B1C17288B1D152883120313861E14280A
:10002000861B061F14281528A01606080B1083121D
:1000300003130C1C232883160C1C23288312101076
:10004000A70A0C10101459088300F60E760E09004A
:100050002230840059303520203084002230352071
:100060008301912D04068001840A0406031D3228B1
:0200700000345A
:1006F40006308301A4000730AC00201E0800A400CB
:100704000630AC00080083018517A01C8B2B3C30FD
:100714009700861E8B2B30309700851308000B1032
:100724008B15831603130514831206116300060840
:10073400061583160510831205100B108B11080083
:10074400F401F5010310F30CF20C031CB02B700838
:10075400F40771080318710AF5070310F00DF10D81
:100764007208730403190034A42B8301D0012508F3
:1007740083169B001C1483125008313E840083139B
:1007840083161A0880001C18C52B8312A50AD00AE8
:100794001E30500203180800B92B8301D601D7017B
:1007A400D72B0000D60A0319D70A0A30F200F30146
:1007B4005508F1005408F000A22375085702031DE0
:1007C400E52B7408560203180800D32B8B158B17DE
:1007D400831203138517A01CF12B3C309700A60845
:1007E4000319F62BCC26F12BCC26A6080319A01A44
:0C07F400FC2BF62B8B118B133030970080
:100800008513A01208008301A801A80A0510831609
:1008100005100000000000000000000000000000C3
:100820000000000000000514172C0000A80A831225
:10083000051C152C7B268316051083120510080055
:10084000B7238B158B17CF01322C4F08313E840014
:10085000831300082A26A01A392CCF0A1E304F0213
:100860000318392C4F08313E840083138008031D80
:10087000252C8B118B1320112013A012080083014B
:10088000A0178517211D512C0130F0002308F1001D
:10089000F10A4C2C0310F00DF10B4A2C7008AD043A
:1008A000A30AA01C552C3C3097002908D500D6017E
:1008B00011253030970085132A08D500D60111255F
:1008C000A0130800830121148517211D742C013009
:1008D000F0002308F100F10A6F2C0310F00DF10B6A
:1008E0006D2C7009AD05A30AA01C782C3C30970034
:1008F0002F08D5003008D600112530309700851319
:100900002808D500D6011125211008008301D30045
:10091000D40183169C18892C8312530883169B00DC
:1009200083125408313E84008313000883169A0012
:1009300003108B1B03148B131C1555309D00AA301C
:100940009D009C141C1103188B179C18A52C831256
:10095000D30AD40A1E30540203180800892C8301DC
:100960001030A0067A230D302A2603302A261730AD
:100970002A26201EBD2CA214BE2CA21083169C1861
:10098000BE2C9B018312220883169A0003108B1B36
:1009900003148B131C1555309D00AA309D009C1428
:1009A0001C1103188B179C1CD72CD32CCC2683121C
:1009B000A60803190800D62C8301A01CED2C0830D2
:1009C0002A261B302A261B302A26F430D400013078
:1009D000D500CF23A0102210F32CA01408302A2613
:1009E00006302A26221483169C18F32C9B018312AE
:1009F000220883169A0003108B1B03148B131C15FB
:100A000055309D00AA309D009C141C1103188B17B3
:100A10009C1C0C2D082DCC268312A6080319080057
:100A20000B2D8301D701D801382D0608F0002C08C2
:100A3000F100F10A1D2D0310F00CF10B1B2D7008B5
:100A4000F000701CA01F252D20170608F0002408B8
:100A5000F100F10A2D2D0310F00CF10B2B2D700875
:100A6000F000701C211C352D2015D70A0319D80A57
:100A70000530F200F3015608F1005508F000A223FA
:100A800075085802031D462D740857020318080004
:100A9000152DCC26A60803198F2D260B522D0830B4
:100AA000A50020242608043A031D592D2630A50050
:100AB00020242608103A031D602D4430A500202470
:100AC0002608403A031D672D6230A5002024260821
:100AD000023A031D6E2D0830A5002F272608083A7C
:100AE000031D752D2630A5002F272608203A031D4B
:100AF0007C2D4430A5002F272608803A031D832D26
:100B00006230A5002F2726080A3A0319DC2426089C
:100B1000223A0319E8232608823A0319AF24A601D2
:100B200008005E30831603138500F13086008312BF
:100B300085018601061507309F00831681138312F5
:100B40008F018E01901610160B1783160C144D3062
:100B500092002630831295003030970007309200C3
:100B600083169B011C141A088312A20083161C18FA
:100B7000B62D8312A0102218A014031083120313A1
:100B8000220CF000700C2012031820167A23DB25AB
:100B90004925861AD22D8518D12D051F0618D12D6D
:100BA000D22D852383120313861A861FC72D061F95
:100BB000C72D9123C72D83010608F0002C08F100F2
:100BC000F10AE42D0310F00CF10BE22D7008F00097
:100BD000701CF82D0608F0002408F100F10AF22D2F
:100BE0000310F00CF10BF02D7008F0007018282E97
:100BF0000324211D042EA114042E3F240324201FAE
:100C0000042E6224201320110608F0002408F100AD
:100C1000F10A0C2E0310F00CF10B0A2E7008F000F4
:100C200070181A2EFD2D62240324201D1A2E3F2435
:100C3000201320110608F0002C08F100F10A222EE2
:100C40000310F00CF10B202E7008F000701C132E16
:100C5000830108008301D30003245308F000073008
:100C6000F1000310F00CF10B312E7008F000700C45
:100C7000A0110318A015073083120313D400D40366
:100C80005308F0005408F100F10A482E0310F00C4C
:100C9000F10B462E7008F000700C20100318201481
:100CA00083120313201C3F2E531C582E3F24592E11
:100CB00062240310D30CA01A5F2ED40B542E2808E4
:100CC000D500D60111252808D500D6011125A01D73
:100CD000032C2808D500D60111252808D500D601F7
:100CE00011252808D500D60111252808D500D601E0
:100CF0001125A011032C83012808A9002808F00061
:100D0000F1010310F00DF10D28087007AF00710814
:100D10000318710AB0002808AA000508F0000310A3
:100D2000F00C0310700C0739D500063A031D9D2EF8
:100D30000310280CAF070318B00A5508053A031D25
:100D4000A52E2808AF070318B00A5508043A031D5A
:100D5000B72E0310280CF000F1012808F007031843
:100D6000F10A7008AF070318B00A7108B0075508F8
:100D7000033A031D08002808F0000310F00C0310CC
:100D8000700C2802A9002808F0000310F00C0310D2
:100D9000700C2807AA0008008301A6010618E62E99
:100DA000D3010A30D400D501CF230618DC2ED30A94
:100DB000C8305302031CD12EBF305302031CE22E55
:100DC000A614E62E0330530203182614061AFE2E2C
:100DD000D3010A30D400D501CF23061AF42ED30A4A
:100DE000C8305302031CE92EBF305302031CFA2EF5
:100DF000A615FE2E0330530203182615051B162FC9
:100E0000D3010A30D400D501CF23051B0C2FD30A00
:100E1000C8305302031C012FBF305302031C122F92
:100E2000A616162F0330530203182616851808003D
:100E3000D3010A30D400D501CF238518242FD30A3B
:100E4000C8305302031C192FBF305302031C2A2F32
:100E5000A6170800033053020318261708000324BE
:100E6000831612088312CF002115D0015008313E9D
:100E7000840083138001D00A1E305002031C362FD9
:100E800009302A260D302A26A6080319492FCC2618
:100E9000442FD001AD01A301A30803199A2F9C2F61
:100EA000DB2504302702031C962F83160C108312B7
:100EB00010105003313E840083138017A7012111C5
:100EC0000D302A265003313E84008313000F952FE6
:100ED0005003313E84008001F430D4000130D5004D
:100EE000CF231D302A2605302A260F302A2602302D
:100EF0002A26F430D4000130D500CF23033050022D
:100F0000031C892F5008FD3E313E840083130008E6
:100F10008C2F06302A2608302A2602305002031C65
:100F2000942FFE30D007952FD0032115CC26A6088C
:100F3000031DE92FA11C502FD101D2010530F20071
:100F4000F3012808F000F101A22375085202031DE5
:100F5000AB2F740851020318BB2FA11006302302D7
:100F60000318BB2FDB25A11CB72FD101D201D10A59
:100F70000319D20A9E2F06302302031CC12F06300C
:100F8000A3000130F0002308F100F10AC92F03107B
:100F9000F00DF10BC72F7008AD045008313E8400EE
:100FA00083132D0880001A305002031CDE2F0530F9
:100FB000831692070310120C83129500A7011014D8
:100FC00083160C148B178312D00A1E305002031C98
:100FD0004A2F83160C108B1383121010C830D400C4
:100FE000D501CF232508862421114F0883169200AE
:100FF0000310120C8312950008302A260A302A2E7C
:02400E00383F39
:1042000001000000000000000000000000000000AD
:10421000000000000000000000000000000000009E
:10422000000000000000000000000000000000008E
:10423000000000000000000000000000000000007E
:10424000000000000000000000000000000000006E
:10425000000000000000000000000000000000005E
:10426000000000000000000000000000000000004E
:10427000000000000000000000000000000000003E
:10428000000000000000000000000000000000002E
:10429000000000000000000000000000000000001E
:1042A000000000000000000000000000000000000E
:1042B00000000000000000000000000000000000FE
:1042C00000000000000000000000000000000000EE
:1042D00000000000000000000000000000000000DE
:1042E00000000000000000000000000000000000CE
:1042F00000000000000000000000000000000000BE
:00000001FF
